:100000000C9463000C9404020C9480000C94800007
:100010000C9480000C9480000C9480000C94800060
:100020000C9480000C9480000C9480000C94800050
:100030000C9480000C9480000C9480000C94800040
:100040000C9480000C9480000C9480000C94800030
:100050000C9480000C9480000C9480000C94800020
:100060000C9480000C9480000902120001010080B1
:100070003209040000000000000012011001FF001E
:100080000008C016DC050001010200011C03490044
:1000900044002000360030003100300035003000D0
:1000A00034003700300038001A0363007000650028
:1000B0002E006B0075002E00610063002E0074009E
:1000C00068000403090411241FBECFEFD8E0DEBF8F
:1000D000CDBF11E0A0E0B1E0EAE5F6E002C0059096
:1000E0000D92A230B107D9F721E0A2E0B1E001C042
:1000F0001D92A033B207E1F70E9418030C942B0362
:100100000C940000CF93FC01C181C11105C0628134
:1001100084810E94B9002AC0C23081F486B183FB79
:10012000992790F981E089278093040184E091E088
:100130009093150180931401C1E018C0C13021F4DF
:1001400082810E94D40011C0C33079F484E00E94FF
:10015000E600909303018093020182E091E0909386
:10016000150180931401C2E001C0C0E08C2FCF9133
:1001700008958330C0F448B121E030E0662349F0AF
:10018000B90102C0660F771F8A95E2F7CB01842B75
:1001900009C0B90102C0660F771F8A95E2F7CB014B
:1001A0008095842388B9089598B1987F98B998B1BB
:1001B0008770982B98B9089587B1876087B987B100
:1001C000877E87B9439A80E00C94D4008F70806456
:1001D00080937C0087EC80937A0080917A0086FD82
:1001E000FCCF209178008091790090E0982F8827AB
:1001F000820F911D0895CF93DF9380911601835054
:1002000087FD8AC0909112019D3209F083C0883029
:1002100009F080C080911301CCE0D0E0C81BD10967
:10022000C65EDE4F83EC809306018AE58093010170
:10023000109205018881807621F0CE010E94820013
:1002400060C08A8110920F019981911106C01092AD
:1002500010012FE031E082E050C0953019F4809316
:1002600017013DC09630A9F59B81913019F48AE7BA
:1002700090E004C0923041F488E690E0909315013C
:100280008093140182E121C09330F1F4811108C000
:1002900082EC90E0909315018093140184E015C0E6
:1002A000813041F488EA90E0909315018093140125
:1002B0008AE10BC0823041F48CE890E09093150104
:1002C000809314018CE101C080E090E490930501DB
:1002D00018C0983079F0993031F4809319012FE0EB
:1002E00031E080E00AC081E09A3009F080E02FE040
:1002F00031E003C029E131E081E030931501209322
:1003000014019F81911104C09E81981708F4892FD0
:1003100080930001109216018091010184FF47C073
:10032000809100018F3F09F442C0C82F893008F046
:10033000C8E08C1B809300019091060188E8892712
:1003400080930601CC2331F14091140150911501A5
:100350008091050186FF0AC0A7E0B1E0FA019C2F59
:1003600084918D9331969150D9F708C0DA01E7E076
:10037000F1E09C2F8D9181939150E1F72FEF2C0F9D
:1003800030E02F5F3F4FCA01820F931F90931501FA
:10039000809314016C2F87E091E00E940002CC5FF3
:1003A000CC3019F08FEF80930001C093010184E1FC
:1003B00099B1947131F48150D9F7109217011092CC
:1003C0001101DF91CF910895E9E6F0E0808182602C
:1003D0008083E89A0895A82FB92F80E090E041E04B
:1003E00050EA609530E009C02D9182279795879556
:1003F00010F084279527305EC8F36F5FA8F3089547
:10040000EADF8D939D930895CF93CFB7CF93DF937A
:10041000C3954C9BE9F74C9B0BC04C9B09C04C9B74
:1004200007C04C9B05C04C9B03C04C9B01C089C0BE
:100430006F93C0911301DD27C65EDE4F2F9365E5F4
:100440004C9B03C02F916F91E6CF0F931F934F9357
:1004500020E040E15F9309B1047104FB27F93F9369
:1004600050E03BE039C0147140642F77012F5F5F8B
:100470001EC0406819B114712F7752501FC04064DC
:1004800009B12F770471D1F15F5F00C023C04062D2
:1004900019B12F77147191F15F5F00C025C004710D
:1004A0001027515012F45D5F0000115027952C3F2A
:1004B00019B1C8F614710127015027952C3FC8F6D1
:1004C0004227499309B1047110274F7311502795A2
:1004D0002C3FA8F64695469519B1147179F001277D
:1004E000015027952C3F98F66B5A60F3315009B1B3
:1004F000B0F600C011E01CBB002717C03B5031957F
:10050000C31BD04011E01CBB0881033CF9F00B3445
:10051000E9F0209111011981110F1213EDCF093665
:1005200051F10D3211F0013E39F7009318013F915E
:100530005F914F911F910F912F916F91CCB3C0FD9F
:1005400067CFDF91CF91CFBFCF9118952091180140
:10055000222369F310911601112339F534303AF151
:100560003093160120931201109113013BE0311BCF
:10057000309313011CC0009116010130B4F40AE558
:100580003091010134FD14C000930101C6E0D1E0B7
:1005900013C0052710E000C000000BB91AC00527E2
:1005A00010E0221F1DC010E021C04AE502C032ED5C
:1005B000432FC4E1D0E032E01AB114615C9A0BB170
:1005C0001AB954E120E865E320FF05270BB9279508
:1005D00017951C3FF0F66695B8F7B1F720FF052791
:1005E0000BB9279517951C3FD0F62795179517FF40
:1005F000052700001C3F0BB9B0F629913A9519F771
:100600000B7E10911701110FC651D0400BB911F09C
:100610001093110111E01CBB00611AB11B7E402F29
:100620004B7E54E05A95F1F70BB91AB94BB97FCF0D
:100630000E94DC000E94E401549A2FEF85EA9EE0BC
:10064000215080409040E1F700C000005498789419
:0A0650000E94FB00FDCFF894FFCFDD
:02065A00FF5A45
:00000001FF
